{
  "contractName": "HJKStableCoin",
  "abi": [
    {
      "inputs": [
        {
          "internalType": "address",
          "name": "initialOwner",
          "type": "address"
        }
      ],
      "stateMutability": "nonpayable",
      "type": "constructor"
    },
    {
      "inputs": [
        {
          "internalType": "address",
          "name": "spender",
          "type": "address"
        },
        {
          "internalType": "uint256",
          "name": "allowance",
          "type": "uint256"
        },
        {
          "internalType": "uint256",
          "name": "needed",
          "type": "uint256"
        }
      ],
      "name": "ERC20InsufficientAllowance",
      "type": "error"
    },
    {
      "inputs": [
        {
          "internalType": "address",
          "name": "sender",
          "type": "address"
        },
        {
          "internalType": "uint256",
          "name": "balance",
          "type": "uint256"
        },
        {
          "internalType": "uint256",
          "name": "needed",
          "type": "uint256"
        }
      ],
      "name": "ERC20InsufficientBalance",
      "type": "error"
    },
    {
      "inputs": [
        {
          "internalType": "address",
          "name": "approver",
          "type": "address"
        }
      ],
      "name": "ERC20InvalidApprover",
      "type": "error"
    },
    {
      "inputs": [
        {
          "internalType": "address",
          "name": "receiver",
          "type": "address"
        }
      ],
      "name": "ERC20InvalidReceiver",
      "type": "error"
    },
    {
      "inputs": [
        {
          "internalType": "address",
          "name": "sender",
          "type": "address"
        }
      ],
      "name": "ERC20InvalidSender",
      "type": "error"
    },
    {
      "inputs": [
        {
          "internalType": "address",
          "name": "spender",
          "type": "address"
        }
      ],
      "name": "ERC20InvalidSpender",
      "type": "error"
    },
    {
      "inputs": [
        {
          "internalType": "address",
          "name": "owner",
          "type": "address"
        }
      ],
      "name": "OwnableInvalidOwner",
      "type": "error"
    },
    {
      "inputs": [
        {
          "internalType": "address",
          "name": "account",
          "type": "address"
        }
      ],
      "name": "OwnableUnauthorizedAccount",
      "type": "error"
    },
    {
      "anonymous": false,
      "inputs": [
        {
          "indexed": true,
          "internalType": "address",
          "name": "owner",
          "type": "address"
        },
        {
          "indexed": true,
          "internalType": "address",
          "name": "spender",
          "type": "address"
        },
        {
          "indexed": false,
          "internalType": "uint256",
          "name": "value",
          "type": "uint256"
        }
      ],
      "name": "Approval",
      "type": "event"
    },
    {
      "anonymous": false,
      "inputs": [
        {
          "indexed": true,
          "internalType": "address",
          "name": "account",
          "type": "address"
        },
        {
          "indexed": false,
          "internalType": "uint256",
          "name": "ethWithdraw",
          "type": "uint256"
        },
        {
          "indexed": false,
          "internalType": "uint256",
          "name": "amountCollateral",
          "type": "uint256"
        },
        {
          "indexed": false,
          "internalType": "uint256",
          "name": "time",
          "type": "uint256"
        }
      ],
      "name": "Burn",
      "type": "event"
    },
    {
      "anonymous": false,
      "inputs": [
        {
          "indexed": true,
          "internalType": "address",
          "name": "account",
          "type": "address"
        },
        {
          "indexed": false,
          "internalType": "uint256",
          "name": "ethDeposit",
          "type": "uint256"
        },
        {
          "indexed": false,
          "internalType": "uint256",
          "name": "amountCollateral",
          "type": "uint256"
        },
        {
          "indexed": false,
          "internalType": "uint256",
          "name": "time",
          "type": "uint256"
        }
      ],
      "name": "Mint",
      "type": "event"
    },
    {
      "anonymous": false,
      "inputs": [
        {
          "indexed": true,
          "internalType": "address",
          "name": "previousOwner",
          "type": "address"
        },
        {
          "indexed": true,
          "internalType": "address",
          "name": "newOwner",
          "type": "address"
        }
      ],
      "name": "OwnershipTransferred",
      "type": "event"
    },
    {
      "anonymous": false,
      "inputs": [
        {
          "indexed": true,
          "internalType": "address",
          "name": "from",
          "type": "address"
        },
        {
          "indexed": true,
          "internalType": "address",
          "name": "to",
          "type": "address"
        },
        {
          "indexed": false,
          "internalType": "uint256",
          "name": "value",
          "type": "uint256"
        }
      ],
      "name": "Transfer",
      "type": "event"
    },
    {
      "inputs": [
        {
          "internalType": "address",
          "name": "owner",
          "type": "address"
        },
        {
          "internalType": "address",
          "name": "spender",
          "type": "address"
        }
      ],
      "name": "allowance",
      "outputs": [
        {
          "internalType": "uint256",
          "name": "",
          "type": "uint256"
        }
      ],
      "stateMutability": "view",
      "type": "function"
    },
    {
      "inputs": [
        {
          "internalType": "address",
          "name": "spender",
          "type": "address"
        },
        {
          "internalType": "uint256",
          "name": "value",
          "type": "uint256"
        }
      ],
      "name": "approve",
      "outputs": [
        {
          "internalType": "bool",
          "name": "",
          "type": "bool"
        }
      ],
      "stateMutability": "nonpayable",
      "type": "function"
    },
    {
      "inputs": [
        {
          "internalType": "address",
          "name": "account",
          "type": "address"
        }
      ],
      "name": "balanceOf",
      "outputs": [
        {
          "internalType": "uint256",
          "name": "",
          "type": "uint256"
        }
      ],
      "stateMutability": "view",
      "type": "function"
    },
    {
      "inputs": [
        {
          "internalType": "address",
          "name": "",
          "type": "address"
        }
      ],
      "name": "collateral",
      "outputs": [
        {
          "internalType": "uint256",
          "name": "",
          "type": "uint256"
        }
      ],
      "stateMutability": "view",
      "type": "function"
    },
    {
      "inputs": [],
      "name": "decimals",
      "outputs": [
        {
          "internalType": "uint8",
          "name": "",
          "type": "uint8"
        }
      ],
      "stateMutability": "view",
      "type": "function"
    },
    {
      "inputs": [],
      "name": "name",
      "outputs": [
        {
          "internalType": "string",
          "name": "",
          "type": "string"
        }
      ],
      "stateMutability": "view",
      "type": "function"
    },
    {
      "inputs": [],
      "name": "owner",
      "outputs": [
        {
          "internalType": "address",
          "name": "",
          "type": "address"
        }
      ],
      "stateMutability": "view",
      "type": "function"
    },
    {
      "inputs": [],
      "name": "symbol",
      "outputs": [
        {
          "internalType": "string",
          "name": "",
          "type": "string"
        }
      ],
      "stateMutability": "view",
      "type": "function"
    },
    {
      "inputs": [],
      "name": "totalSupply",
      "outputs": [
        {
          "internalType": "uint256",
          "name": "",
          "type": "uint256"
        }
      ],
      "stateMutability": "view",
      "type": "function"
    },
    {
      "inputs": [
        {
          "internalType": "address",
          "name": "to",
          "type": "address"
        },
        {
          "internalType": "uint256",
          "name": "value",
          "type": "uint256"
        }
      ],
      "name": "transfer",
      "outputs": [
        {
          "internalType": "bool",
          "name": "",
          "type": "bool"
        }
      ],
      "stateMutability": "nonpayable",
      "type": "function"
    },
    {
      "inputs": [
        {
          "internalType": "address",
          "name": "from",
          "type": "address"
        },
        {
          "internalType": "address",
          "name": "to",
          "type": "address"
        },
        {
          "internalType": "uint256",
          "name": "value",
          "type": "uint256"
        }
      ],
      "name": "transferFrom",
      "outputs": [
        {
          "internalType": "bool",
          "name": "",
          "type": "bool"
        }
      ],
      "stateMutability": "nonpayable",
      "type": "function"
    },
    {
      "inputs": [
        {
          "internalType": "address",
          "name": "newOwner",
          "type": "address"
        }
      ],
      "name": "transferOwnership",
      "outputs": [],
      "stateMutability": "nonpayable",
      "type": "function"
    },
    {
      "inputs": [],
      "name": "renounceOwnership",
      "outputs": [],
      "stateMutability": "nonpayable",
      "type": "function"
    },
    {
      "inputs": [],
      "name": "getChainlinkDataFeedLatestAnswer",
      "outputs": [
        {
          "internalType": "int256",
          "name": "",
          "type": "int256"
        }
      ],
      "stateMutability": "view",
      "type": "function"
    },
    {
      "inputs": [],
      "name": "mintStableCoin",
      "outputs": [],
      "stateMutability": "payable",
      "type": "function"
    },
    {
      "inputs": [
        {
          "internalType": "uint256",
          "name": "stableCointAmount",
          "type": "uint256"
        }
      ],
      "name": "burnStableCoin",
      "outputs": [],
      "stateMutability": "nonpayable",
      "type": "function"
    }
  ],
  "bytecode": "0x608060405234801562000010575f80fd5b5060405162002218380380620022188339818101604052810190620000369190620002d1565b806040518060400160405280600d81526020017f484a4b537461626c65436f696e000000000000000000000000000000000000008152506040518060400160405280600381526020017f48534300000000000000000000000000000000000000000000000000000000008152508160039081620000b4919062000565565b508060049081620000c6919062000565565b5050505f73ffffffffffffffffffffffffffffffffffffffff168173ffffffffffffffffffffffffffffffffffffffff16036200013c575f6040517f1e4fbdf70000000000000000000000000000000000000000000000000000000081526004016200013391906200065a565b60405180910390fd5b6200014d81620001a960201b60201c565b5073694aa1769357215de4fac081bf1f309adc32530660065f6101000a81548173ffffffffffffffffffffffffffffffffffffffff021916908373ffffffffffffffffffffffffffffffffffffffff1602179055505062000675565b5f60055f9054906101000a900473ffffffffffffffffffffffffffffffffffffffff1690508160055f6101000a81548173ffffffffffffffffffffffffffffffffffffffff021916908373ffffffffffffffffffffffffffffffffffffffff1602179055508173ffffffffffffffffffffffffffffffffffffffff168173ffffffffffffffffffffffffffffffffffffffff167f8be0079c531659141344cd1fd0a4f28419497f9722a3daafe3b4186f6b6457e060405160405180910390a35050565b5f80fd5b5f73ffffffffffffffffffffffffffffffffffffffff82169050919050565b5f6200029b8262000270565b9050919050565b620002ad816200028f565b8114620002b8575f80fd5b50565b5f81519050620002cb81620002a2565b92915050565b5f60208284031215620002e957620002e86200026c565b5b5f620002f884828501620002bb565b91505092915050565b5f81519050919050565b7f4e487b71000000000000000000000000000000000000000000000000000000005f52604160045260245ffd5b7f4e487b71000000000000000000000000000000000000000000000000000000005f52602260045260245ffd5b5f60028204905060018216806200037d57607f821691505b60208210810362000393576200039262000338565b5b50919050565b5f819050815f5260205f209050919050565b5f6020601f8301049050919050565b5f82821b905092915050565b5f60088302620003f77fffffffffffffffffffffffffffffffffffffffffffffffffffffffffffffffff82620003ba565b620004038683620003ba565b95508019841693508086168417925050509392505050565b5f819050919050565b5f819050919050565b5f6200044d6200044762000441846200041b565b62000424565b6200041b565b9050919050565b5f819050919050565b62000468836200042d565b62000480620004778262000454565b848454620003c6565b825550505050565b5f90565b6200049662000488565b620004a38184846200045d565b505050565b5b81811015620004ca57620004be5f826200048c565b600181019050620004a9565b5050565b601f8211156200051957620004e38162000399565b620004ee84620003ab565b81016020851015620004fe578190505b620005166200050d85620003ab565b830182620004a8565b50505b505050565b5f82821c905092915050565b5f6200053b5f19846008026200051e565b1980831691505092915050565b5f6200055583836200052a565b9150826002028217905092915050565b620005708262000301565b67ffffffffffffffff8111156200058c576200058b6200030b565b5b62000598825462000365565b620005a5828285620004ce565b5f60209050601f831160018114620005db575f8415620005c6578287015190505b620005d2858262000548565b86555062000641565b601f198416620005eb8662000399565b5f5b828110156200061457848901518255600182019150602085019450602081019050620005ed565b8683101562000634578489015162000630601f8916826200052a565b8355505b6001600288020188555050505b505050505050565b62000654816200028f565b82525050565b5f6020820190506200066f5f83018462000649565b92915050565b611b9580620006835f395ff3fe6080604052600436106100f2575f3560e01c8063715018a611610089578063a9059cbb11610058578063a9059cbb14610300578063bea4dfb51461033c578063dd62ed3e14610366578063f2fde38b146103a2576100f2565b8063715018a61461025a5780638da5cb5b1461027057806395d89b411461029a578063a5fdc5de146102c4576100f2565b80633128b9c8116100c55780633128b9c8146101c2578063313ce567146101cc5780634798eb21146101f657806370a082311461021e576100f2565b806306fdde03146100f6578063095ea7b31461012057806318160ddd1461015c57806323b872dd14610186575b5f80fd5b348015610101575f80fd5b5061010a6103ca565b60405161011791906113b0565b60405180910390f35b34801561012b575f80fd5b5061014660048036038101906101419190611461565b61045a565b60405161015391906114b9565b60405180910390f35b348015610167575f80fd5b5061017061047c565b60405161017d91906114e1565b60405180910390f35b348015610191575f80fd5b506101ac60048036038101906101a791906114fa565b610485565b6040516101b991906114b9565b60405180910390f35b6101ca6104b3565b005b3480156101d7575f80fd5b506101e0610613565b6040516101ed9190611565565b60405180910390f35b348015610201575f80fd5b5061021c6004803603810190610217919061157e565b61061b565b005b348015610229575f80fd5b50610244600480360381019061023f91906115a9565b610849565b60405161025191906114e1565b60405180910390f35b348015610265575f80fd5b5061026e61088e565b005b34801561027b575f80fd5b506102846108c9565b60405161029191906115e3565b60405180910390f35b3480156102a5575f80fd5b506102ae6108f1565b6040516102bb91906113b0565b60405180910390f35b3480156102cf575f80fd5b506102ea60048036038101906102e591906115a9565b610981565b6040516102f791906114e1565b60405180910390f35b34801561030b575f80fd5b5061032660048036038101906103219190611461565b610996565b60405161033391906114b9565b60405180910390f35b348015610347575f80fd5b506103506109b8565b60405161035d9190611614565b60405180910390f35b348015610371575f80fd5b5061038c6004803603810190610387919061162d565b610a55565b60405161039991906114e1565b60405180910390f35b3480156103ad575f80fd5b506103c860048036038101906103c391906115a9565b610ad7565b005b6060600380546103d990611698565b80601f016020809104026020016040519081016040528092919081815260200182805461040590611698565b80156104505780601f1061042757610100808354040283529160200191610450565b820191905f5260205f20905b81548152906001019060200180831161043357829003601f168201915b5050505050905090565b5f80610464610b5b565b9050610471818585610b62565b600191505092915050565b5f600254905090565b5f8061048f610b5b565b905061049c858285610b74565b6104a7858585610c06565b60019150509392505050565b5f34116104f5576040517f08c379a00000000000000000000000000000000000000000000000000000000081526004016104ec90611712565b60405180910390fd5b5f6104fe6109b8565b90505f8113610542576040517f08c379a00000000000000000000000000000000000000000000000000000000081526004016105399061177a565b60405180910390fd5b5f6305f5e100823461055491906117c5565b61055e9190611833565b90503460075f3373ffffffffffffffffffffffffffffffffffffffff1673ffffffffffffffffffffffffffffffffffffffff1681526020019081526020015f205f8282546105ac9190611863565b925050819055506105bd3382610cf6565b3373ffffffffffffffffffffffffffffffffffffffff167fb4c03061fb5b7fed76389d5af8f2e0ddb09f8c70d1333abbb62582835e10accb34834260405161060793929190611896565b60405180910390a25050565b5f6012905090565b8061062533610849565b1015610666576040517f08c379a000000000000000000000000000000000000000000000000000000000815260040161065d90611915565b60405180910390fd5b5f61066f6109b8565b90505f81136106b3576040517f08c379a00000000000000000000000000000000000000000000000000000000081526004016106aa9061177a565b60405180910390fd5b5f816305f5e100846106c591906117c5565b6106cf9190611833565b90508060075f3373ffffffffffffffffffffffffffffffffffffffff1673ffffffffffffffffffffffffffffffffffffffff1681526020019081526020015f20541015610751576040517f08c379a00000000000000000000000000000000000000000000000000000000081526004016107489061197d565b60405180910390fd5b61075b3384610d75565b8060075f3373ffffffffffffffffffffffffffffffffffffffff1673ffffffffffffffffffffffffffffffffffffffff1681526020019081526020015f205f8282546107a7919061199b565b925050819055503373ffffffffffffffffffffffffffffffffffffffff166108fc8290811502906040515f60405180830381858888f193505050501580156107f1573d5f803e3d5ffd5b503373ffffffffffffffffffffffffffffffffffffffff167f743033787f4738ff4d6a7225ce2bd0977ee5f86b91a902a58f5e4d0b297b464482854260405161083c93929190611896565b60405180910390a2505050565b5f805f8373ffffffffffffffffffffffffffffffffffffffff1673ffffffffffffffffffffffffffffffffffffffff1681526020019081526020015f20549050919050565b6040517f08c379a00000000000000000000000000000000000000000000000000000000081526004016108c090611a18565b60405180910390fd5b5f60055f9054906101000a900473ffffffffffffffffffffffffffffffffffffffff16905090565b60606004805461090090611698565b80601f016020809104026020016040519081016040528092919081815260200182805461092c90611698565b80156109775780601f1061094e57610100808354040283529160200191610977565b820191905f5260205f20905b81548152906001019060200180831161095a57829003601f168201915b5050505050905090565b6007602052805f5260405f205f915090505481565b5f806109a0610b5b565b90506109ad818585610c06565b600191505092915050565b5f8060065f9054906101000a900473ffffffffffffffffffffffffffffffffffffffff1673ffffffffffffffffffffffffffffffffffffffff1663feaf968c6040518163ffffffff1660e01b815260040160a060405180830381865afa158015610a24573d5f803e3d5ffd5b505050506040513d601f19601f82011682018060405250810190610a489190611ab3565b5050509150508091505090565b5f60015f8473ffffffffffffffffffffffffffffffffffffffff1673ffffffffffffffffffffffffffffffffffffffff1681526020019081526020015f205f8373ffffffffffffffffffffffffffffffffffffffff1673ffffffffffffffffffffffffffffffffffffffff1681526020019081526020015f2054905092915050565b610adf610df4565b5f73ffffffffffffffffffffffffffffffffffffffff168173ffffffffffffffffffffffffffffffffffffffff1603610b4f575f6040517f1e4fbdf7000000000000000000000000000000000000000000000000000000008152600401610b4691906115e3565b60405180910390fd5b610b5881610e7b565b50565b5f33905090565b610b6f8383836001610f3e565b505050565b5f610b7f8484610a55565b90507fffffffffffffffffffffffffffffffffffffffffffffffffffffffffffffffff8114610c005781811015610bf1578281836040517ffb8f41b2000000000000000000000000000000000000000000000000000000008152600401610be893929190611b2a565b60405180910390fd5b610bff84848484035f610f3e565b5b50505050565b5f73ffffffffffffffffffffffffffffffffffffffff168373ffffffffffffffffffffffffffffffffffffffff1603610c76575f6040517f96c6fd1e000000000000000000000000000000000000000000000000000000008152600401610c6d91906115e3565b60405180910390fd5b5f73ffffffffffffffffffffffffffffffffffffffff168273ffffffffffffffffffffffffffffffffffffffff1603610ce6575f6040517fec442f05000000000000000000000000000000000000000000000000000000008152600401610cdd91906115e3565b60405180910390fd5b610cf183838361110d565b505050565b5f73ffffffffffffffffffffffffffffffffffffffff168273ffffffffffffffffffffffffffffffffffffffff1603610d66575f6040517fec442f05000000000000000000000000000000000000000000000000000000008152600401610d5d91906115e3565b60405180910390fd5b610d715f838361110d565b5050565b5f73ffffffffffffffffffffffffffffffffffffffff168273ffffffffffffffffffffffffffffffffffffffff1603610de5575f6040517f96c6fd1e000000000000000000000000000000000000000000000000000000008152600401610ddc91906115e3565b60405180910390fd5b610df0825f8361110d565b5050565b610dfc610b5b565b73ffffffffffffffffffffffffffffffffffffffff16610e1a6108c9565b73ffffffffffffffffffffffffffffffffffffffff1614610e7957610e3d610b5b565b6040517f118cdaa7000000000000000000000000000000000000000000000000000000008152600401610e7091906115e3565b60405180910390fd5b565b5f60055f9054906101000a900473ffffffffffffffffffffffffffffffffffffffff1690508160055f6101000a81548173ffffffffffffffffffffffffffffffffffffffff021916908373ffffffffffffffffffffffffffffffffffffffff1602179055508173ffffffffffffffffffffffffffffffffffffffff168173ffffffffffffffffffffffffffffffffffffffff167f8be0079c531659141344cd1fd0a4f28419497f9722a3daafe3b4186f6b6457e060405160405180910390a35050565b5f73ffffffffffffffffffffffffffffffffffffffff168473ffffffffffffffffffffffffffffffffffffffff1603610fae575f6040517fe602df05000000000000000000000000000000000000000000000000000000008152600401610fa591906115e3565b60405180910390fd5b5f73ffffffffffffffffffffffffffffffffffffffff168373ffffffffffffffffffffffffffffffffffffffff160361101e575f6040517f94280d6200000000000000000000000000000000000000000000000000000000815260040161101591906115e3565b60405180910390fd5b8160015f8673ffffffffffffffffffffffffffffffffffffffff1673ffffffffffffffffffffffffffffffffffffffff1681526020019081526020015f205f8573ffffffffffffffffffffffffffffffffffffffff1673ffffffffffffffffffffffffffffffffffffffff1681526020019081526020015f20819055508015611107578273ffffffffffffffffffffffffffffffffffffffff168473ffffffffffffffffffffffffffffffffffffffff167f8c5be1e5ebec7d5bd14f71427d1e84f3dd0314c0f7b2291e5b200ac8c7c3b925846040516110fe91906114e1565b60405180910390a35b50505050565b5f73ffffffffffffffffffffffffffffffffffffffff168373ffffffffffffffffffffffffffffffffffffffff160361115d578060025f8282546111519190611863565b9250508190555061122b565b5f805f8573ffffffffffffffffffffffffffffffffffffffff1673ffffffffffffffffffffffffffffffffffffffff1681526020019081526020015f20549050818110156111e6578381836040517fe450d38c0000000000000000000000000000000000000000000000000000000081526004016111dd93929190611b2a565b60405180910390fd5b8181035f808673ffffffffffffffffffffffffffffffffffffffff1673ffffffffffffffffffffffffffffffffffffffff1681526020019081526020015f2081905550505b5f73ffffffffffffffffffffffffffffffffffffffff168273ffffffffffffffffffffffffffffffffffffffff1603611272578060025f82825403925050819055506112bc565b805f808473ffffffffffffffffffffffffffffffffffffffff1673ffffffffffffffffffffffffffffffffffffffff1681526020019081526020015f205f82825401925050819055505b8173ffffffffffffffffffffffffffffffffffffffff168373ffffffffffffffffffffffffffffffffffffffff167fddf252ad1be2c89b69c2b068fc378daa952ba7f163c4a11628f55a4df523b3ef8360405161131991906114e1565b60405180910390a3505050565b5f81519050919050565b5f82825260208201905092915050565b5f5b8381101561135d578082015181840152602081019050611342565b5f8484015250505050565b5f601f19601f8301169050919050565b5f61138282611326565b61138c8185611330565b935061139c818560208601611340565b6113a581611368565b840191505092915050565b5f6020820190508181035f8301526113c88184611378565b905092915050565b5f80fd5b5f73ffffffffffffffffffffffffffffffffffffffff82169050919050565b5f6113fd826113d4565b9050919050565b61140d816113f3565b8114611417575f80fd5b50565b5f8135905061142881611404565b92915050565b5f819050919050565b6114408161142e565b811461144a575f80fd5b50565b5f8135905061145b81611437565b92915050565b5f8060408385031215611477576114766113d0565b5b5f6114848582860161141a565b92505060206114958582860161144d565b9150509250929050565b5f8115159050919050565b6114b38161149f565b82525050565b5f6020820190506114cc5f8301846114aa565b92915050565b6114db8161142e565b82525050565b5f6020820190506114f45f8301846114d2565b92915050565b5f805f60608486031215611511576115106113d0565b5b5f61151e8682870161141a565b935050602061152f8682870161141a565b92505060406115408682870161144d565b9150509250925092565b5f60ff82169050919050565b61155f8161154a565b82525050565b5f6020820190506115785f830184611556565b92915050565b5f60208284031215611593576115926113d0565b5b5f6115a08482850161144d565b91505092915050565b5f602082840312156115be576115bd6113d0565b5b5f6115cb8482850161141a565b91505092915050565b6115dd816113f3565b82525050565b5f6020820190506115f65f8301846115d4565b92915050565b5f819050919050565b61160e816115fc565b82525050565b5f6020820190506116275f830184611605565b92915050565b5f8060408385031215611643576116426113d0565b5b5f6116508582860161141a565b92505060206116618582860161141a565b9150509250929050565b7f4e487b71000000000000000000000000000000000000000000000000000000005f52602260045260245ffd5b5f60028204905060018216806116af57607f821691505b6020821081036116c2576116c161166b565b5b50919050565b7f4465706f736974204554482072657175697265640000000000000000000000005f82015250565b5f6116fc601483611330565b9150611707826116c8565b602082019050919050565b5f6020820190508181035f830152611729816116f0565b9050919050565b7f50726963652066656564206572726f72000000000000000000000000000000005f82015250565b5f611764601083611330565b915061176f82611730565b602082019050919050565b5f6020820190508181035f83015261179181611758565b9050919050565b7f4e487b71000000000000000000000000000000000000000000000000000000005f52601160045260245ffd5b5f6117cf8261142e565b91506117da8361142e565b92508282026117e88161142e565b915082820484148315176117ff576117fe611798565b5b5092915050565b7f4e487b71000000000000000000000000000000000000000000000000000000005f52601260045260245ffd5b5f61183d8261142e565b91506118488361142e565b92508261185857611857611806565b5b828204905092915050565b5f61186d8261142e565b91506118788361142e565b92508282019050808211156118905761188f611798565b5b92915050565b5f6060820190506118a95f8301866114d2565b6118b660208301856114d2565b6118c360408301846114d2565b949350505050565b7f496e73756666696369656e742042616c616e63650000000000000000000000005f82015250565b5f6118ff601483611330565b915061190a826118cb565b602082019050919050565b5f6020820190508181035f83015261192c816118f3565b9050919050565b7f496e73756666696369656e7420636f6c6c61746572616c0000000000000000005f82015250565b5f611967601783611330565b915061197282611933565b602082019050919050565b5f6020820190508181035f8301526119948161195b565b9050919050565b5f6119a58261142e565b91506119b08361142e565b92508282039050818111156119c8576119c7611798565b5b92915050565b7f4e6f7420616c6c6f7765640000000000000000000000000000000000000000005f82015250565b5f611a02600b83611330565b9150611a0d826119ce565b602082019050919050565b5f6020820190508181035f830152611a2f816119f6565b9050919050565b5f69ffffffffffffffffffff82169050919050565b611a5481611a36565b8114611a5e575f80fd5b50565b5f81519050611a6f81611a4b565b92915050565b611a7e816115fc565b8114611a88575f80fd5b50565b5f81519050611a9981611a75565b92915050565b5f81519050611aad81611437565b92915050565b5f805f805f60a08688031215611acc57611acb6113d0565b5b5f611ad988828901611a61565b9550506020611aea88828901611a8b565b9450506040611afb88828901611a9f565b9350506060611b0c88828901611a9f565b9250506080611b1d88828901611a61565b9150509295509295909350565b5f606082019050611b3d5f8301866115d4565b611b4a60208301856114d2565b611b5760408301846114d2565b94935050505056fea26469706673582212204a1f62a07dd8a6c0ae0d59462f04a60c85330fe8f9dcf6b942dfa704bbf4b47964736f6c63430008150033",
  "immutableReferences": {},
  "source": "// SPDX-License-Identifier: MIT\r\n// Compatible with OpenZeppelin Contracts ^5.0.0\r\n\r\n// stablecoin indexed to ETH\r\n// 1 ETH equivalent n HTC\r\n\r\npragma solidity ^0.8.20;\r\n\r\nimport \"@openzeppelin/contracts/token/ERC20/ERC20.sol\";\r\nimport \"@openzeppelin/contracts/access/Ownable.sol\";\r\nimport {AggregatorV3Interface} from \"@chainlink/contracts/src/v0.8/shared/interfaces/AggregatorV3Interface.sol\";\r\n\r\ncontract HJKStableCoin is ERC20, Ownable {\r\n    // TokenTimelock public timeLock;\r\n\r\n    AggregatorV3Interface internal dataFeed; \r\n\r\n    mapping(address => uint256) public collateral;\r\n\r\n    // uint256 initialMint = 1000 * 10 ** decimals();\r\n\r\n    event Mint(\r\n        address indexed account,\r\n        uint ethDeposit,\r\n        uint amountCollateral,\r\n        uint time\r\n    );\r\n    event Burn(\r\n        address indexed account,\r\n        uint ethWithdraw,\r\n        uint amountCollateral,\r\n        uint time\r\n    );\r\n\r\n    constructor(\r\n        address initialOwner\r\n    ) ERC20(\"HJKStableCoin\", \"HSC\") Ownable(initialOwner) {\r\n        // _mint(address(this), 10 * 10 ** decimals());\r\n        // timeLock = new TokenTimelock(\r\n        //     this,\r\n        //     initialOwner,\r\n        //     block.timestamp + 365 days\r\n        // );\r\n\r\n        dataFeed = AggregatorV3Interface(\r\n            0x694AA1769357215DE4FAC081bf1f309aDC325306 // Address pair ETH/USD\r\n        );\r\n    }\r\n\r\n    function renounceOwnership() public virtual override {\r\n        revert(\"Not allowed\");\r\n    }\r\n\r\n    function getChainlinkDataFeedLatestAnswer() public view returns (int256) {\r\n        (, int256 answer, , , ) = dataFeed.latestRoundData();\r\n\r\n        return answer;\r\n    }\r\n\r\n    function mintStableCoin() external payable {\r\n        require(msg.value > 0, \"Deposit ETH required\");\r\n\r\n        int256 ethPrice = getChainlinkDataFeedLatestAnswer();\r\n\r\n        require(ethPrice > 0, \"Price feed error\");\r\n\r\n        uint256 stableCoinAmount = (msg.value * uint256(ethPrice)) / 1e8;\r\n\r\n        collateral[msg.sender] += msg.value;\r\n\r\n        _mint(msg.sender, stableCoinAmount);\r\n\r\n        emit Mint(msg.sender, msg.value, stableCoinAmount, block.timestamp);\r\n    }\r\n\r\n    function burnStableCoin(uint256 stableCointAmount) external {\r\n        require(\r\n            balanceOf(msg.sender) >= stableCointAmount,\r\n            \"Insufficient Balance\"\r\n        );\r\n\r\n        int256 ethPrice = getChainlinkDataFeedLatestAnswer();\r\n        require(ethPrice > 0, \"Price feed error\");\r\n\r\n        uint256 ethAmount = (stableCointAmount * 1e8) / uint256(ethPrice);\r\n\r\n        require(collateral[msg.sender] >= ethAmount, \"Insufficient collateral\");\r\n\r\n        _burn(msg.sender, stableCointAmount);\r\n\r\n        collateral[msg.sender] -= ethAmount;\r\n\r\n        payable(msg.sender).transfer(ethAmount);\r\n\r\n        emit Burn(msg.sender, ethAmount, stableCointAmount, block.timestamp);\r\n    }\r\n\r\n    // function testBalanceOf() public view returns (uint256) {\r\n    //     return balanceOf(msg.sender) / 1e8;\r\n    // }\r\n\r\n    // function testCollateral() public view returns (uint256) {\r\n    //     return collateral[msg.sender] / 1 ether;\r\n    // }\r\n}\r\n",
  "sourcePath": "C:\\Users\\Henry\\Desktop\\stablecoin-ethereum\\contracts\\HJKStableCoin.sol",
  "compiler": {
    "name": "solc",
    "version": "0.8.21+commit.d9974bed.Emscripten.clang"
  },
  "schemaVersion": "3.4.16",
  "updatedAt": "2024-09-12T02:51:33.477Z",
  "devdoc": {
    "errors": {
      "ERC20InsufficientAllowance(address,uint256,uint256)": [
        {
          "details": "Indicates a failure with the `spender`s `allowance`. Used in transfers.",
          "params": {
            "allowance": "Amount of tokens a `spender` is allowed to operate with.",
            "needed": "Minimum amount required to perform a transfer.",
            "spender": "Address that may be allowed to operate on tokens without being their owner."
          }
        }
      ],
      "ERC20InsufficientBalance(address,uint256,uint256)": [
        {
          "details": "Indicates an error related to the current `balance` of a `sender`. Used in transfers.",
          "params": {
            "balance": "Current balance for the interacting account.",
            "needed": "Minimum amount required to perform a transfer.",
            "sender": "Address whose tokens are being transferred."
          }
        }
      ],
      "ERC20InvalidApprover(address)": [
        {
          "details": "Indicates a failure with the `approver` of a token to be approved. Used in approvals.",
          "params": {
            "approver": "Address initiating an approval operation."
          }
        }
      ],
      "ERC20InvalidReceiver(address)": [
        {
          "details": "Indicates a failure with the token `receiver`. Used in transfers.",
          "params": {
            "receiver": "Address to which tokens are being transferred."
          }
        }
      ],
      "ERC20InvalidSender(address)": [
        {
          "details": "Indicates a failure with the token `sender`. Used in transfers.",
          "params": {
            "sender": "Address whose tokens are being transferred."
          }
        }
      ],
      "ERC20InvalidSpender(address)": [
        {
          "details": "Indicates a failure with the `spender` to be approved. Used in approvals.",
          "params": {
            "spender": "Address that may be allowed to operate on tokens without being their owner."
          }
        }
      ],
      "OwnableInvalidOwner(address)": [
        {
          "details": "The owner is not a valid owner account. (eg. `address(0)`)"
        }
      ],
      "OwnableUnauthorizedAccount(address)": [
        {
          "details": "The caller account is not authorized to perform an operation."
        }
      ]
    },
    "events": {
      "Approval(address,address,uint256)": {
        "details": "Emitted when the allowance of a `spender` for an `owner` is set by a call to {approve}. `value` is the new allowance."
      },
      "Transfer(address,address,uint256)": {
        "details": "Emitted when `value` tokens are moved from one account (`from`) to another (`to`). Note that `value` may be zero."
      }
    },
    "kind": "dev",
    "methods": {
      "allowance(address,address)": {
        "details": "See {IERC20-allowance}."
      },
      "approve(address,uint256)": {
        "details": "See {IERC20-approve}. NOTE: If `value` is the maximum `uint256`, the allowance is not updated on `transferFrom`. This is semantically equivalent to an infinite approval. Requirements: - `spender` cannot be the zero address."
      },
      "balanceOf(address)": {
        "details": "See {IERC20-balanceOf}."
      },
      "decimals()": {
        "details": "Returns the number of decimals used to get its user representation. For example, if `decimals` equals `2`, a balance of `505` tokens should be displayed to a user as `5.05` (`505 / 10 ** 2`). Tokens usually opt for a value of 18, imitating the relationship between Ether and Wei. This is the default value returned by this function, unless it's overridden. NOTE: This information is only used for _display_ purposes: it in no way affects any of the arithmetic of the contract, including {IERC20-balanceOf} and {IERC20-transfer}."
      },
      "name()": {
        "details": "Returns the name of the token."
      },
      "owner()": {
        "details": "Returns the address of the current owner."
      },
      "renounceOwnership()": {
        "details": "Leaves the contract without owner. It will not be possible to call `onlyOwner` functions. Can only be called by the current owner. NOTE: Renouncing ownership will leave the contract without an owner, thereby disabling any functionality that is only available to the owner."
      },
      "symbol()": {
        "details": "Returns the symbol of the token, usually a shorter version of the name."
      },
      "totalSupply()": {
        "details": "See {IERC20-totalSupply}."
      },
      "transfer(address,uint256)": {
        "details": "See {IERC20-transfer}. Requirements: - `to` cannot be the zero address. - the caller must have a balance of at least `value`."
      },
      "transferFrom(address,address,uint256)": {
        "details": "See {IERC20-transferFrom}. Emits an {Approval} event indicating the updated allowance. This is not required by the EIP. See the note at the beginning of {ERC20}. NOTE: Does not update the allowance if the current allowance is the maximum `uint256`. Requirements: - `from` and `to` cannot be the zero address. - `from` must have a balance of at least `value`. - the caller must have allowance for ``from``'s tokens of at least `value`."
      },
      "transferOwnership(address)": {
        "details": "Transfers ownership of the contract to a new account (`newOwner`). Can only be called by the current owner."
      }
    },
    "version": 1
  },
  "userdoc": {
    "kind": "user",
    "methods": {},
    "version": 1
  }
}